:100000000C9434000C943E000C943E000C943E0082
:100010000C943E000C943E000C943E000C943E0068
:100020000C943E000C943E000C943E000C943E0058
:100030000C943E000C943E000C943E000C943E0048
:100040000C943E000C943E000C943E000C943E0038
:100050000C943E000C943E000C943E000C943E0028
:100060000C943E000C943E0011241FBECFEFD8E04C
:10007000DEBFCDBF0E9495000C94CA000C94000016
:10008000FC01408121E030E002C0220F331F6A955D
:10009000E2F7242B20830895FC01808121E030E0E9
:1000A00002C0220F331F6A95E2F7922F90958923A1
:1000B00080838181282B21830895FC01908121E098
:1000C00030E002C0220F331F6A95E2F72095292302
:1000D00020830895FC01408121E030E002C0220F1E
:1000E000331F6A95E2F7242B20830895FC01408199
:1000F00021E030E002C0220F331F6A95E2F7242787
:1001000020830895FC01208181E090E0062E02C04A
:10011000880F991F0A94E2F730E08223932302C0EC
:10012000959587956A95E2F7089565E084E290E0F9
:100130000E94400065E085E290E00E945D0060E082
:1001400087E290E00E94400060E088E290E00E9438
:100150006A0067E08AE290E00E944C0013C065E00C
:1001600084E290E00E94760060E087E290E00E94E6
:1001700076002FEF89E698E1215080409040E1F72A
:1001800000C0000067E08AE290E00E9482008823BD
:0801900031F3F8CFF894FFCF22
:00000001FF
