S01700004763634170706C69636174696F6E312E737265635B
S11300000C9434000C9451000C9451000C94510045
S11300100C9451000C9451000C9451000C94510018
S11300200C9451000C9451000C9451000C94510008
S11300300C9451000C946C000C9451000C945100DD
S11300400C9451000C9451000C942E010C945C01FE
S11300500C9451000C9451000C9451000C945100D8
S11300600C9451000C94510011241FBECFEFD8E022
S1130070DEBFCDBF11E0A0E0B1E0E4EFF3E002C0E9
S113008005900D92A234B107D9F721E0A2E4B1E0C2
S113009001C01D92A838B207E1F70E9453000C94E6
S11300A0F8010C9400000E94FD0087E690E00E9495
S11300B08601E1E8F0E080818A7F8083808182602C
S11300C08083EFE6F0E0808181608083789482E031
S11300D091E00E94B401FFCF1F920F920FB60F92CE
S11300E011242F933F934F935F936F937F938F9339
S11300F09F93AF93BF93EF93FF93CF93DF9300D07E
S1130100CDB7DEB780E390E39A83898380910101C0
S11301108230D9F1833009F447C0813009F055C0E9
S1130120809100018F5F8093000191E02091420152
S1130130211190E021E0873708F020E0222331F0FC
S1130140992321F082E08093010142C021E08837A5
S113015008F420E02223E1F19923D1F181E0809396
S1130160420187E08093000180E291E00E94B401A3
S11301704AE0BE016F5F7F4F80E090E00E94C301C0
S1130180CE0101960E94B40123C080910001880F22
S11301900E940C010E942A018DE391E00E94B401A7
S11301A081E08093010114C08091000140E1BE010F
S11301B06F5F7F4F90E00E94C301CE0101960E94C1
S11301C0B40181E08093010103C081E080930101C7
S11301D00F900F90DF91CF91FF91EF91BF91AF916D
S11301E09F918F917F916F915F914F913F912F914B
S11301F00F900FBE0F901F90189587B18F7C87B911
S113020088B1806388B9E9EBF0E080818C7F8083DA
S113021088E98093B800089594EA9093BC00ECEBCD
S1130220F0E090819923ECF78093BB0084E88093FD
S1130230BC00ECEBF0E080818823ECF79091B900EE
S1130240987F983129F081E0903419F480E0089582
S113025080E0089584E98093BC0008951F920F9272
S11302600FB60F9211242F938F939F93EF93FF93C5
S11302708091C0002091C6008C71E0914501EF5F30
S1130280EF7190914401E91739F0E0934501F0E0F2
S1130290E85BFE4F208301C082E090914301892BEB
S11302A080934301FF91EF919F918F912F910F9034
S11302B00FBE0F901F9018951F920F920FB60F92BA
S11302C011248F939F93EF93FF9390914701809113
S11302D04601981769F0E0914601EF5FEF71E093F2
S11302E04601F0E0E859FE4F80818093C60005C0C6
S11302F0E1ECF0E080818F7D8083FF91EF919F910D
S11303008F910F900FBE0F901F9018951092470178
S113031010924601109245011092440199231CF455
S113032022E02093C00090789093C5008093C4008D
S113033088E98093C10086E08093C20008952091EB
S113034047012F5F2F71909146012917E1F3E22FA6
S1130350F0E0E859FE4F808320934701E1ECF0E0A0
S11303608081806280830895CF93DF93EC0188813C
S1130370882331F021960E949F0189918111FBCF3E
S1130380DF91CF910895BB274A3031F4992322F4A9
S1130390BDE2909581959F4F0C94CF01BB27FB0143
S11303A05527AA27880F991FAA1FA41710F0A41B6A
S11303B083955051B9F7A05DAA3308F0A95DA193C4
S11303C0009779F7B111B1931192CB010C94E80124
S11303D0DC01FC01672F71917723E1F7329704C0A8
S11303E07C916D9370836291AE17BF07C8F3089533
S10703F0F894FFCFAB
S11303F407010D0A5363616E204932432D627573FC
S113040420666F7220646576696365733A0D0A0029
S11304140D0A4E756D626572206F6620666F756E87
S11304246420646576696365733A200D00202D2D7C
S10504342000A2
S9030000FC
