:100000000C9434000C943E000C943E000C943E0082
:100010000C943E000C943E000C943E000C943E0068
:100020000C943E000C943E000C943E000C943E0058
:100030000C943E000C943E000C943E000C943E0048
:100040000C943E000C943E000C943E000C943E0038
:100050000C943E000C943E000C943E000C943E0028
:100060000C943E000C943E0011241FBECFEFD8E04C
:10007000DEBFCDBF0E9440000C945E000C940000D7
:100080002D98259A419A399A419A399895B180E2EA
:10009000892785B920E292E0309BFECF3FEF44E311
:1000A0008CE0315040408040E1F700C0000085B155
:1000B000822785B988B1892788B9EECFF894FFCF18
:00000001FF
