:100000000C9434000C9451000C9451000C94510049
:100010000C9451000C9451000C9451000C9451001C
:100020000C9451000C9451000C9451000C9451000C
:100030000C9451000C9447010C9451000C94510005
:100040000C9451000C9451000C94A6010C94D40112
:100050000C9451000C945C010C9451000C945100D0
:100060000C9451000C94510011241FBECFEFD8E026
:10007000DEBFCDBF11E0A0E0B1E0ECE9F4E002C0EA
:1000800005900D92A231B107D9F721E0A2E1B1E0CC
:1000900001C01D92A735B207E1F70E94F6000C944B
:1000A0004C020C940000299A85E08A95F1F7000033
:1000B00029980895CF93C82F662311F0289A01C07C
:1000C0002898549A559A569A579A5F985E985D98D0
:1000D0005C98CC230CF45F9AC6FD5E9AC5FD5D9AD0
:1000E000C4FD5C9A0E9453005F985E985D985C988E
:1000F000C3FD5F9AC2FD5E9AC1FD5D9AC0FD5C9A28
:100100000E9453005C9A5D9A5E9A5F9A87EB9BE02F
:100110000197F1F700C00000CF91089560E00E94C0
:100120005A000895611104C080580E948E000895FD
:1001300080540E948E00089581E00E948E000895F0
:1001400061E00E945A000895CF93DF93EC0121965D
:10015000FC018081882329F00E94A00089918111EF
:10016000FBCFDF91CF910895CF93C82F209A559A56
:10017000219A549A559A569A579A8FEF99EF019768
:10018000F1F700C000005D9A5C9A0E9453008FE175
:100190009EE40197F1F700C000000E9453008FEF2A
:1001A00090E00197F1F700C000000E9453008FEF2C
:1001B00090E00197F1F700C000005C980E945300A6
:1001C0008FEF90E00197F1F700C0000088E20E94F5
:1001D0008E0088E00E948E000E949C0086E00E94B3
:1001E0008E008C2F0E948E00CF9108958CE00E948B
:1001F000B40060E081E00E94920080E091E00E9403
:10020000A40061E083E00E94920087E091E00E94F8
:10021000A40060E088E00E9492008CE091E00E94DF
:10022000A40060E08DE00E9492008EE091E00E94C8
:10023000A40061E088E00E94920080E191E00E94C9
:10024000A400ECE7F0E080818064808380818F608F
:100250008083EAE7F0E08081806880838081886025
:100260008083808187608083EFE6F0E08081816019
:100270008083E1E8F0E080818C7F808380818460EE
:10028000808380E090E00E94FE017894FFCF1F926F
:100290000F920FB60F9211248F93EF93FF93EAE71B
:1002A000F0E0808180688083FF91EF918F910F90C3
:1002B0000FBE0F901F9018951F920F920FB60F92BE
:1002C00011240F931F932F933F934F935F936F933B
:1002D0007F938F939F93AF93BF93EF93FF93CF93AE
:1002E000DF9300D000D0CDB7DEB780E390E39A83F0
:1002F00089839C838B8300917800109179004AE078
:10030000BE016F5F7F4FC8010E94170260E088E066
:100310000E949200802F0E94A0000F900F900F90DB
:100320000F90DF91CF91FF91EF91BF91AF919F918E
:100330008F917F916F915F914F913F912F911F917D
:100340000F910F900FBE0F901F9018951F920F9254
:100350000FB60F9211242F938F939F93EF93FF93D8
:100360008091C0002091C6008C71E0911401EF5F74
:10037000EF7190911301E91739F0E0931401F0E067
:10038000E95EFE4F208301C082E090911201892B2B
:1003900080931201FF91EF919F918F912F910F9078
:1003A0000FBE0F901F9018951F920F920FB60F92CD
:1003B00011248F939F93EF93FF9390911601809157
:1003C0001501981769F0E0911501EF5FEF71E09367
:1003D0001501F0E0E95CFE4F80818093C60005C006
:1003E000E1ECF0E080818F7D8083FF91EF919F9120
:1003F0008F910F900FBE0F901F90189510921601BD
:1004000010921501109214011092130199231CF4FB
:1004100022E02093C00090789093C5008093C400A0
:1004200088E98093C10086E08093C2000895BB27CD
:100430004A3031F4992322F4BDE2909581959F4F83
:100440000C942302BB27FB015527AA27880F991F6D
:10045000AA1FA41710F0A41B83955051B9F7A05DF3
:10046000AA3308F0A95DA193009779F7B111B19370
:100470001192CB010C943C02DC01FC01672F7191BD
:100480007723E1F7329704C07C916D93708362917A
:0C049000AE17BF07C8F30895F894FFCF23
:10049C0076616C75653A006B65793A0061006200B3
:0204AC006300EB
:00000001FF
