:100000000C9434000C9451000C9451000C94510049
:100010000C9451000C9451000C9451000C9451001C
:100020000C9451000C9451000C9451000C9451000C
:100030000C9451000C94C3000C9451000C9451008A
:100040000C9451000C9451000C9451000C945100EC
:100050000C9451000C9451000C9451000C945100DC
:100060000C9451000C94510011241FBECFEFD8E026
:10007000DEBFCDBF11E0A0E0B1E0ECE5F2E002C0F0
:1000800005900D92A830B107D9F721E0A8E0B1E0C2
:1000900001C01D92AA30B207E1F70E9487000C94BC
:1000A0002C010C940000FC01408121E030E002C0F2
:1000B000220F331F6A95E2F7242B20830895FC0159
:1000C000808121E030E002C0220F331F6A95E2F701
:1000D0002095822380838181282321830895FC0138
:1000E000408121E030E002C0220F331F6A95E2F721
:1000F000242B20830895FC01408121E030E002C0E0
:10010000220F331F6A95E2F724272083089565E0C4
:1001100084E290E00E94530065E085E290E00E9456
:100120006F0064E084E290E00E94530064E085E2A6
:1001300090E00E946F0063E084E290E00E94530030
:1001400063E085E290E00E946F0062E084E290E06C
:100150000E94530062E085E290E00E946F00E1E8B7
:10016000F0E080818B7F8083808183608083EFE6F5
:10017000F0E080818160808363E087E290E00E940C
:100180005F007894FFCF1F920F920FB60F92112449
:100190002F933F934F935F936F937F938F939F938F
:1001A000AF93BF93EF93FF93E0910901E530C8F45B
:1001B00080910801811115C0F0E0EE0FFF1FE050A3
:1001C000FF4F608185E290E00E947B0080910901F1
:1001D0008F5F80930901843021F481E080930801CE
:1001E00004C080910801813031F5E0910901F0E00F
:1001F000EE0FFF1FE050FF4F608185E290E00E940C
:100200007B00E0910901F0E0EE0FFF1FE250FF4F8D
:10021000608185E290E00E947B008091090181501D
:1002200080930901811107C01092080165E085E201
:1002300090E00E947B00FF91EF91BF91AF919F9161
:100240008F917F916F915F914F913F912F910F907F
:0C0250000FBE0F901F901895F894FFCF80
:08025C0005000400030002008C
:00000001FF
