:100000000C9434000C9451000C9451000C94510049
:100010000C9451000C9451000C9451000C9451001C
:100020000C9451000C9451000C9451000C9451000C
:100030000C9451000C94AE000C9451000C9451009F
:100040000C9451000C9451000C9451000C945100EC
:100050000C9451000C9451000C9451000C945100DC
:100060000C9451000C94510011241FBECFEFD8E026
:10007000DEBFCDBF11E0A0E0B1E0E0E4F2E002C0FD
:1000800005900D92A830B107D9F721E0A8E0B1E0C2
:1000900001C01D92AA30B207E1F70E9477000C94CC
:1000A0001E010C940000FC01408121E030E002C000
:1000B000220F331F6A95E2F7242B20830895FC0159
:1000C000408121E030E002C0220F331F6A95E2F741
:1000D000242B20830895FC01408121E030E002C000
:1000E000220F331F6A95E2F724272083089565E0E5
:1000F00084E290E00E94530065E085E290E00E9477
:100100005F0064E084E290E00E94530064E085E2D6
:1001100090E00E945F0063E084E290E00E94530060
:1001200063E085E290E00E945F0062E084E290E09C
:100130000E94530062E085E290E00E945F00E1E8E7
:10014000F0E080818B7F8083808183608083EFE615
:10015000F0E08081816080837894FFCF1F920F92BE
:100160000FB60F9211242F933F934F935F936F938A
:100170007F938F939F93AF93BF93EF93FF93E09100
:100180000901E53028F580910801811121C0F0E0D6
:10019000EE0FFF1FE050FF4F608185E290E00E946C
:1001A0006B00E0910901F0E0EE0FFF1FE250FF4FFE
:1001B000608185E290E00E946B00809109018F5F71
:1001C00080930901843020F081E08093080104C00D
:1001D00080910801813009F5E0910901F0E0EE0F0E
:1001E000FF1FE050FF4F608185E290E00E946B00AE
:1001F000E0910901F0E0EE0FFF1FE250FF4F608138
:1002000085E290E00E946B0080910901815080930B
:100210000901811102C010920801FF91EF91BF9175
:10022000AF919F918F917F916F915F914F913F918E
:100230002F910F900FBE0F901F901895F894FFCF3D
:080240000500040003000200A8
:00000001FF
